{
  "address": "0x5FbDB2315678afecb367f032d93F642f64180aa3",
  "abi": [
    {
      "inputs": [
        {
          "internalType": "address",
          "name": "xAddr",
          "type": "address"
        }
      ],
      "name": "viewScore",
      "outputs": [
        {
          "internalType": "uint256",
          "name": "",
          "type": "uint256"
        }
      ],
      "stateMutability": "pure",
      "type": "function"
    }
  ],
  "transactionHash": "0x6d14e6b6e3c47f97c69228904bb8b667e37487ff8f9b9b7a5df577943e93c3b9",
  "args": [],
  "numDeployments": 1,
  "solcInputHash": "76398c14c42bf1e754ceb126090322ee",
  "bytecode": "0x608060405234801561001057600080fd5b5060ed8061001f6000396000f3fe6080604052348015600f57600080fd5b506004361060285760003560e01c8063db230b5214602d575b600080fd5b603c60383660046068565b604e565b60405190815260200160405180910390f35b6000606260646001600160a01b0384166096565b92915050565b600060208284031215607957600080fd5b81356001600160a01b0381168114608f57600080fd5b9392505050565b60008260b257634e487b7160e01b600052601260045260246000fd5b50069056fea26469706673582212208c37f423b5fa7a10694cd5089475d7626858914c8a5902fcb51be755c23e093364736f6c634300080c0033",
  "devdoc": {
    "kind": "dev",
    "methods": {},
    "version": 1
  },
  "userdoc": {
    "kind": "user",
    "methods": {},
    "version": 1
  },
  "storageLayout": {
    "storage": [],
    "types": null
  }
}