{
  "address": "0xd5bBa668908C2AB9c9926A505A24C368e401181a",
  "abi": [
    {
      "inputs": [
        {
          "internalType": "contract IVotes",
          "name": "_token",
          "type": "address"
        },
        {
          "internalType": "contract TimelockController",
          "name": "_timelock",
          "type": "address"
        },
        {
          "internalType": "uint256",
          "name": "_quorumPercentage",
          "type": "uint256"
        },
        {
          "internalType": "uint256",
          "name": "_votingPeriod",
          "type": "uint256"
        },
        {
          "internalType": "uint256",
          "name": "_votingDelay",
          "type": "uint256"
        },
        {
          "internalType": "address",
          "name": "_scoreProviderAddress",
          "type": "address"
        }
      ],
      "stateMutability": "nonpayable",
      "type": "constructor"
    },
    {
      "inputs": [],
      "name": "Empty",
      "type": "error"
    },
    {
      "anonymous": false,
      "inputs": [
        {
          "indexed": false,
          "internalType": "uint256",
          "name": "proposalId",
          "type": "uint256"
        }
      ],
      "name": "ProposalCanceled",
      "type": "event"
    },
    {
      "anonymous": false,
      "inputs": [
        {
          "indexed": false,
          "internalType": "uint256",
          "name": "proposalId",
          "type": "uint256"
        },
        {
          "indexed": false,
          "internalType": "address",
          "name": "proposer",
          "type": "address"
        },
        {
          "indexed": false,
          "internalType": "address[]",
          "name": "targets",
          "type": "address[]"
        },
        {
          "indexed": false,
          "internalType": "uint256[]",
          "name": "values",
          "type": "uint256[]"
        },
        {
          "indexed": false,
          "internalType": "string[]",
          "name": "signatures",
          "type": "string[]"
        },
        {
          "indexed": false,
          "internalType": "bytes[]",
          "name": "calldatas",
          "type": "bytes[]"
        },
        {
          "indexed": false,
          "internalType": "uint256",
          "name": "startBlock",
          "type": "uint256"
        },
        {
          "indexed": false,
          "internalType": "uint256",
          "name": "endBlock",
          "type": "uint256"
        },
        {
          "indexed": false,
          "internalType": "string",
          "name": "description",
          "type": "string"
        }
      ],
      "name": "ProposalCreated",
      "type": "event"
    },
    {
      "anonymous": false,
      "inputs": [
        {
          "indexed": false,
          "internalType": "uint256",
          "name": "proposalId",
          "type": "uint256"
        }
      ],
      "name": "ProposalExecuted",
      "type": "event"
    },
    {
      "anonymous": false,
      "inputs": [
        {
          "indexed": false,
          "internalType": "uint256",
          "name": "proposalId",
          "type": "uint256"
        },
        {
          "indexed": false,
          "internalType": "uint256",
          "name": "eta",
          "type": "uint256"
        }
      ],
      "name": "ProposalQueued",
      "type": "event"
    },
    {
      "anonymous": false,
      "inputs": [
        {
          "indexed": false,
          "internalType": "uint256",
          "name": "oldProposalThreshold",
          "type": "uint256"
        },
        {
          "indexed": false,
          "internalType": "uint256",
          "name": "newProposalThreshold",
          "type": "uint256"
        }
      ],
      "name": "ProposalThresholdSet",
      "type": "event"
    },
    {
      "anonymous": false,
      "inputs": [
        {
          "indexed": false,
          "internalType": "uint256",
          "name": "oldQuorumNumerator",
          "type": "uint256"
        },
        {
          "indexed": false,
          "internalType": "uint256",
          "name": "newQuorumNumerator",
          "type": "uint256"
        }
      ],
      "name": "QuorumNumeratorUpdated",
      "type": "event"
    },
    {
      "anonymous": false,
      "inputs": [
        {
          "indexed": false,
          "internalType": "address",
          "name": "oldTimelock",
          "type": "address"
        },
        {
          "indexed": false,
          "internalType": "address",
          "name": "newTimelock",
          "type": "address"
        }
      ],
      "name": "TimelockChange",
      "type": "event"
    },
    {
      "anonymous": false,
      "inputs": [
        {
          "indexed": true,
          "internalType": "address",
          "name": "voter",
          "type": "address"
        },
        {
          "indexed": false,
          "internalType": "uint256",
          "name": "proposalId",
          "type": "uint256"
        },
        {
          "indexed": false,
          "internalType": "uint8",
          "name": "support",
          "type": "uint8"
        },
        {
          "indexed": false,
          "internalType": "uint256",
          "name": "weight",
          "type": "uint256"
        },
        {
          "indexed": false,
          "internalType": "string",
          "name": "reason",
          "type": "string"
        }
      ],
      "name": "VoteCast",
      "type": "event"
    },
    {
      "anonymous": false,
      "inputs": [
        {
          "indexed": true,
          "internalType": "address",
          "name": "voter",
          "type": "address"
        },
        {
          "indexed": false,
          "internalType": "uint256",
          "name": "proposalId",
          "type": "uint256"
        },
        {
          "indexed": false,
          "internalType": "uint8",
          "name": "support",
          "type": "uint8"
        },
        {
          "indexed": false,
          "internalType": "uint256",
          "name": "weight",
          "type": "uint256"
        },
        {
          "indexed": false,
          "internalType": "string",
          "name": "reason",
          "type": "string"
        },
        {
          "indexed": false,
          "internalType": "bytes",
          "name": "params",
          "type": "bytes"
        }
      ],
      "name": "VoteCastWithParams",
      "type": "event"
    },
    {
      "anonymous": false,
      "inputs": [
        {
          "indexed": false,
          "internalType": "uint256",
          "name": "oldVotingDelay",
          "type": "uint256"
        },
        {
          "indexed": false,
          "internalType": "uint256",
          "name": "newVotingDelay",
          "type": "uint256"
        }
      ],
      "name": "VotingDelaySet",
      "type": "event"
    },
    {
      "anonymous": false,
      "inputs": [
        {
          "indexed": false,
          "internalType": "uint256",
          "name": "oldVotingPeriod",
          "type": "uint256"
        },
        {
          "indexed": false,
          "internalType": "uint256",
          "name": "newVotingPeriod",
          "type": "uint256"
        }
      ],
      "name": "VotingPeriodSet",
      "type": "event"
    },
    {
      "inputs": [],
      "name": "BALLOT_TYPEHASH",
      "outputs": [
        {
          "internalType": "bytes32",
          "name": "",
          "type": "bytes32"
        }
      ],
      "stateMutability": "view",
      "type": "function"
    },
    {
      "inputs": [],
      "name": "COUNTING_MODE",
      "outputs": [
        {
          "internalType": "string",
          "name": "",
          "type": "string"
        }
      ],
      "stateMutability": "pure",
      "type": "function"
    },
    {
      "inputs": [],
      "name": "EXTENDED_BALLOT_TYPEHASH",
      "outputs": [
        {
          "internalType": "bytes32",
          "name": "",
          "type": "bytes32"
        }
      ],
      "stateMutability": "view",
      "type": "function"
    },
    {
      "inputs": [
        {
          "internalType": "uint256",
          "name": "proposalId",
          "type": "uint256"
        },
        {
          "internalType": "uint8",
          "name": "support",
          "type": "uint8"
        }
      ],
      "name": "castVote",
      "outputs": [
        {
          "internalType": "uint256",
          "name": "",
          "type": "uint256"
        }
      ],
      "stateMutability": "nonpayable",
      "type": "function"
    },
    {
      "inputs": [
        {
          "internalType": "uint256",
          "name": "proposalId",
          "type": "uint256"
        },
        {
          "internalType": "uint8",
          "name": "support",
          "type": "uint8"
        },
        {
          "internalType": "uint8",
          "name": "v",
          "type": "uint8"
        },
        {
          "internalType": "bytes32",
          "name": "r",
          "type": "bytes32"
        },
        {
          "internalType": "bytes32",
          "name": "s",
          "type": "bytes32"
        }
      ],
      "name": "castVoteBySig",
      "outputs": [
        {
          "internalType": "uint256",
          "name": "",
          "type": "uint256"
        }
      ],
      "stateMutability": "nonpayable",
      "type": "function"
    },
    {
      "inputs": [
        {
          "internalType": "uint256",
          "name": "proposalId",
          "type": "uint256"
        },
        {
          "internalType": "uint8",
          "name": "support",
          "type": "uint8"
        },
        {
          "internalType": "string",
          "name": "reason",
          "type": "string"
        }
      ],
      "name": "castVoteWithReason",
      "outputs": [
        {
          "internalType": "uint256",
          "name": "",
          "type": "uint256"
        }
      ],
      "stateMutability": "nonpayable",
      "type": "function"
    },
    {
      "inputs": [
        {
          "internalType": "uint256",
          "name": "proposalId",
          "type": "uint256"
        },
        {
          "internalType": "uint8",
          "name": "support",
          "type": "uint8"
        },
        {
          "internalType": "string",
          "name": "reason",
          "type": "string"
        },
        {
          "internalType": "bytes",
          "name": "params",
          "type": "bytes"
        }
      ],
      "name": "castVoteWithReasonAndParams",
      "outputs": [
        {
          "internalType": "uint256",
          "name": "",
          "type": "uint256"
        }
      ],
      "stateMutability": "nonpayable",
      "type": "function"
    },
    {
      "inputs": [
        {
          "internalType": "uint256",
          "name": "proposalId",
          "type": "uint256"
        },
        {
          "internalType": "uint8",
          "name": "support",
          "type": "uint8"
        },
        {
          "internalType": "string",
          "name": "reason",
          "type": "string"
        },
        {
          "internalType": "bytes",
          "name": "params",
          "type": "bytes"
        },
        {
          "internalType": "uint8",
          "name": "v",
          "type": "uint8"
        },
        {
          "internalType": "bytes32",
          "name": "r",
          "type": "bytes32"
        },
        {
          "internalType": "bytes32",
          "name": "s",
          "type": "bytes32"
        }
      ],
      "name": "castVoteWithReasonAndParamsBySig",
      "outputs": [
        {
          "internalType": "uint256",
          "name": "",
          "type": "uint256"
        }
      ],
      "stateMutability": "nonpayable",
      "type": "function"
    },
    {
      "inputs": [
        {
          "internalType": "address[]",
          "name": "targets",
          "type": "address[]"
        },
        {
          "internalType": "uint256[]",
          "name": "values",
          "type": "uint256[]"
        },
        {
          "internalType": "bytes[]",
          "name": "calldatas",
          "type": "bytes[]"
        },
        {
          "internalType": "bytes32",
          "name": "descriptionHash",
          "type": "bytes32"
        }
      ],
      "name": "execute",
      "outputs": [
        {
          "internalType": "uint256",
          "name": "",
          "type": "uint256"
        }
      ],
      "stateMutability": "payable",
      "type": "function"
    },
    {
      "inputs": [
        {
          "internalType": "address",
          "name": "account",
          "type": "address"
        },
        {
          "internalType": "uint256",
          "name": "blockNumber",
          "type": "uint256"
        }
      ],
      "name": "getVotes",
      "outputs": [
        {
          "internalType": "uint256",
          "name": "",
          "type": "uint256"
        }
      ],
      "stateMutability": "view",
      "type": "function"
    },
    {
      "inputs": [
        {
          "internalType": "address",
          "name": "account",
          "type": "address"
        },
        {
          "internalType": "uint256",
          "name": "blockNumber",
          "type": "uint256"
        },
        {
          "internalType": "bytes",
          "name": "params",
          "type": "bytes"
        }
      ],
      "name": "getVotesWithParams",
      "outputs": [
        {
          "internalType": "uint256",
          "name": "",
          "type": "uint256"
        }
      ],
      "stateMutability": "view",
      "type": "function"
    },
    {
      "inputs": [
        {
          "internalType": "uint256",
          "name": "proposalId",
          "type": "uint256"
        },
        {
          "internalType": "address",
          "name": "account",
          "type": "address"
        }
      ],
      "name": "hasVoted",
      "outputs": [
        {
          "internalType": "bool",
          "name": "",
          "type": "bool"
        }
      ],
      "stateMutability": "view",
      "type": "function"
    },
    {
      "inputs": [
        {
          "internalType": "address[]",
          "name": "targets",
          "type": "address[]"
        },
        {
          "internalType": "uint256[]",
          "name": "values",
          "type": "uint256[]"
        },
        {
          "internalType": "bytes[]",
          "name": "calldatas",
          "type": "bytes[]"
        },
        {
          "internalType": "bytes32",
          "name": "descriptionHash",
          "type": "bytes32"
        }
      ],
      "name": "hashProposal",
      "outputs": [
        {
          "internalType": "uint256",
          "name": "",
          "type": "uint256"
        }
      ],
      "stateMutability": "pure",
      "type": "function"
    },
    {
      "inputs": [],
      "name": "name",
      "outputs": [
        {
          "internalType": "string",
          "name": "",
          "type": "string"
        }
      ],
      "stateMutability": "view",
      "type": "function"
    },
    {
      "inputs": [
        {
          "internalType": "address",
          "name": "",
          "type": "address"
        },
        {
          "internalType": "address",
          "name": "",
          "type": "address"
        },
        {
          "internalType": "uint256[]",
          "name": "",
          "type": "uint256[]"
        },
        {
          "internalType": "uint256[]",
          "name": "",
          "type": "uint256[]"
        },
        {
          "internalType": "bytes",
          "name": "",
          "type": "bytes"
        }
      ],
      "name": "onERC1155BatchReceived",
      "outputs": [
        {
          "internalType": "bytes4",
          "name": "",
          "type": "bytes4"
        }
      ],
      "stateMutability": "nonpayable",
      "type": "function"
    },
    {
      "inputs": [
        {
          "internalType": "address",
          "name": "",
          "type": "address"
        },
        {
          "internalType": "address",
          "name": "",
          "type": "address"
        },
        {
          "internalType": "uint256",
          "name": "",
          "type": "uint256"
        },
        {
          "internalType": "uint256",
          "name": "",
          "type": "uint256"
        },
        {
          "internalType": "bytes",
          "name": "",
          "type": "bytes"
        }
      ],
      "name": "onERC1155Received",
      "outputs": [
        {
          "internalType": "bytes4",
          "name": "",
          "type": "bytes4"
        }
      ],
      "stateMutability": "nonpayable",
      "type": "function"
    },
    {
      "inputs": [
        {
          "internalType": "address",
          "name": "",
          "type": "address"
        },
        {
          "internalType": "address",
          "name": "",
          "type": "address"
        },
        {
          "internalType": "uint256",
          "name": "",
          "type": "uint256"
        },
        {
          "internalType": "bytes",
          "name": "",
          "type": "bytes"
        }
      ],
      "name": "onERC721Received",
      "outputs": [
        {
          "internalType": "bytes4",
          "name": "",
          "type": "bytes4"
        }
      ],
      "stateMutability": "nonpayable",
      "type": "function"
    },
    {
      "inputs": [
        {
          "internalType": "uint256",
          "name": "proposalId",
          "type": "uint256"
        }
      ],
      "name": "proposalDeadline",
      "outputs": [
        {
          "internalType": "uint256",
          "name": "",
          "type": "uint256"
        }
      ],
      "stateMutability": "view",
      "type": "function"
    },
    {
      "inputs": [
        {
          "internalType": "uint256",
          "name": "proposalId",
          "type": "uint256"
        }
      ],
      "name": "proposalEta",
      "outputs": [
        {
          "internalType": "uint256",
          "name": "",
          "type": "uint256"
        }
      ],
      "stateMutability": "view",
      "type": "function"
    },
    {
      "inputs": [
        {
          "internalType": "uint256",
          "name": "proposalId",
          "type": "uint256"
        }
      ],
      "name": "proposalSnapshot",
      "outputs": [
        {
          "internalType": "uint256",
          "name": "",
          "type": "uint256"
        }
      ],
      "stateMutability": "view",
      "type": "function"
    },
    {
      "inputs": [],
      "name": "proposalThreshold",
      "outputs": [
        {
          "internalType": "uint256",
          "name": "",
          "type": "uint256"
        }
      ],
      "stateMutability": "view",
      "type": "function"
    },
    {
      "inputs": [
        {
          "internalType": "uint256",
          "name": "proposalId",
          "type": "uint256"
        }
      ],
      "name": "proposalVotes",
      "outputs": [
        {
          "internalType": "uint256",
          "name": "againstVotes",
          "type": "uint256"
        },
        {
          "internalType": "uint256",
          "name": "forVotes",
          "type": "uint256"
        },
        {
          "internalType": "uint256",
          "name": "abstainVotes",
          "type": "uint256"
        }
      ],
      "stateMutability": "view",
      "type": "function"
    },
    {
      "inputs": [
        {
          "internalType": "address[]",
          "name": "targets",
          "type": "address[]"
        },
        {
          "internalType": "uint256[]",
          "name": "values",
          "type": "uint256[]"
        },
        {
          "internalType": "bytes[]",
          "name": "calldatas",
          "type": "bytes[]"
        },
        {
          "internalType": "string",
          "name": "description",
          "type": "string"
        }
      ],
      "name": "propose",
      "outputs": [
        {
          "internalType": "uint256",
          "name": "",
          "type": "uint256"
        }
      ],
      "stateMutability": "nonpayable",
      "type": "function"
    },
    {
      "inputs": [
        {
          "internalType": "address[]",
          "name": "targets",
          "type": "address[]"
        },
        {
          "internalType": "uint256[]",
          "name": "values",
          "type": "uint256[]"
        },
        {
          "internalType": "bytes[]",
          "name": "calldatas",
          "type": "bytes[]"
        },
        {
          "internalType": "bytes32",
          "name": "descriptionHash",
          "type": "bytes32"
        }
      ],
      "name": "queue",
      "outputs": [
        {
          "internalType": "uint256",
          "name": "",
          "type": "uint256"
        }
      ],
      "stateMutability": "nonpayable",
      "type": "function"
    },
    {
      "inputs": [
        {
          "internalType": "uint256",
          "name": "blockNumber",
          "type": "uint256"
        }
      ],
      "name": "quorum",
      "outputs": [
        {
          "internalType": "uint256",
          "name": "",
          "type": "uint256"
        }
      ],
      "stateMutability": "view",
      "type": "function"
    },
    {
      "inputs": [],
      "name": "quorumDenominator",
      "outputs": [
        {
          "internalType": "uint256",
          "name": "",
          "type": "uint256"
        }
      ],
      "stateMutability": "view",
      "type": "function"
    },
    {
      "inputs": [
        {
          "internalType": "uint256",
          "name": "blockNumber",
          "type": "uint256"
        }
      ],
      "name": "quorumNumerator",
      "outputs": [
        {
          "internalType": "uint256",
          "name": "",
          "type": "uint256"
        }
      ],
      "stateMutability": "view",
      "type": "function"
    },
    {
      "inputs": [],
      "name": "quorumNumerator",
      "outputs": [
        {
          "internalType": "uint256",
          "name": "",
          "type": "uint256"
        }
      ],
      "stateMutability": "view",
      "type": "function"
    },
    {
      "inputs": [
        {
          "internalType": "address",
          "name": "target",
          "type": "address"
        },
        {
          "internalType": "uint256",
          "name": "value",
          "type": "uint256"
        },
        {
          "internalType": "bytes",
          "name": "data",
          "type": "bytes"
        }
      ],
      "name": "relay",
      "outputs": [],
      "stateMutability": "payable",
      "type": "function"
    },
    {
      "inputs": [
        {
          "internalType": "uint256",
          "name": "newProposalThreshold",
          "type": "uint256"
        }
      ],
      "name": "setProposalThreshold",
      "outputs": [],
      "stateMutability": "nonpayable",
      "type": "function"
    },
    {
      "inputs": [
        {
          "internalType": "uint256",
          "name": "newVotingDelay",
          "type": "uint256"
        }
      ],
      "name": "setVotingDelay",
      "outputs": [],
      "stateMutability": "nonpayable",
      "type": "function"
    },
    {
      "inputs": [
        {
          "internalType": "uint256",
          "name": "newVotingPeriod",
          "type": "uint256"
        }
      ],
      "name": "setVotingPeriod",
      "outputs": [],
      "stateMutability": "nonpayable",
      "type": "function"
    },
    {
      "inputs": [
        {
          "internalType": "uint256",
          "name": "proposalId",
          "type": "uint256"
        }
      ],
      "name": "state",
      "outputs": [
        {
          "internalType": "enum IGovernor.ProposalState",
          "name": "",
          "type": "uint8"
        }
      ],
      "stateMutability": "view",
      "type": "function"
    },
    {
      "inputs": [
        {
          "internalType": "bytes4",
          "name": "interfaceId",
          "type": "bytes4"
        }
      ],
      "name": "supportsInterface",
      "outputs": [
        {
          "internalType": "bool",
          "name": "",
          "type": "bool"
        }
      ],
      "stateMutability": "view",
      "type": "function"
    },
    {
      "inputs": [],
      "name": "timelock",
      "outputs": [
        {
          "internalType": "address",
          "name": "",
          "type": "address"
        }
      ],
      "stateMutability": "view",
      "type": "function"
    },
    {
      "inputs": [],
      "name": "token",
      "outputs": [
        {
          "internalType": "contract IVotes",
          "name": "",
          "type": "address"
        }
      ],
      "stateMutability": "view",
      "type": "function"
    },
    {
      "inputs": [
        {
          "internalType": "uint256",
          "name": "newQuorumNumerator",
          "type": "uint256"
        }
      ],
      "name": "updateQuorumNumerator",
      "outputs": [],
      "stateMutability": "nonpayable",
      "type": "function"
    },
    {
      "inputs": [
        {
          "internalType": "contract TimelockController",
          "name": "newTimelock",
          "type": "address"
        }
      ],
      "name": "updateTimelock",
      "outputs": [],
      "stateMutability": "nonpayable",
      "type": "function"
    },
    {
      "inputs": [],
      "name": "version",
      "outputs": [
        {
          "internalType": "string",
          "name": "",
          "type": "string"
        }
      ],
      "stateMutability": "view",
      "type": "function"
    },
    {
      "inputs": [],
      "name": "votingDelay",
      "outputs": [
        {
          "internalType": "uint256",
          "name": "",
          "type": "uint256"
        }
      ],
      "stateMutability": "view",
      "type": "function"
    },
    {
      "inputs": [],
      "name": "votingPeriod",
      "outputs": [
        {
          "internalType": "uint256",
          "name": "",
          "type": "uint256"
        }
      ],
      "stateMutability": "view",
      "type": "function"
    },
    {
      "stateMutability": "payable",
      "type": "receive"
    }
  ],
  "transactionHash": "0xbf9d5c62e21f4e3e250a1cfd7fe5cab1df2554b3cff1e97ebb8f3996aee4276c",
  "args": [
    "0x64845507e9304ea3427440837d5a000D9Aa08fc0",
    "0x53772b323Ae754007d320125f60e7Da15963c5ef",
    4,
    5,
    1,
    "0x3baEf58f49e836d5127a161Ce827ecBa3577B73d"
  ],
  "numDeployments": 1,
  "solcInputHash": "7381e15fb332231eba315a6b1d05756f",
  "bytecode": "0x610160604052600d80546001600160a01b03191673cbe9771ed31e761b744d3cb9ef78a1f32dd992111790553480156200003857600080fd5b50604051620046bd380380620046bd8339810160408190526200005b91620008fd565b848487848660006040518060400160405280601081526020016f11dbdd995c9b9bdc90dbdb9d1c9858dd60821b815250806200009c620001ba60201b60201c565b815160208084019190912082518383012060e08290526101008190524660a0818152604080517f8b73c3c69bb8fe3d512ecc4cf759cc79239f7b179b0ffacaa9a75d522b39400f81880181905281830187905260608201869052608082019490945230818401528151808203909301835260c00190528051940193909320919290916080523060c052610120525050825162000142925060009150602084019062000848565b5062000150905083620001d5565b6200015b8262000216565b6200016681620002bd565b5050506001600160a01b0316610140526200018181620002fe565b506200018d8162000476565b50600c80546001600160a01b0319166001600160a01b039290921691909117905550620009d19350505050565b6040805180820190915260018152603160f81b602082015290565b60045460408051918252602082018390527fc565b045403dc03c2eea82b81a0465edad9e2e7fc4d97e11421c209da93d7a93910160405180910390a1600455565b600081116200027c5760405162461bcd60e51b815260206004820152602760248201527f476f7665726e6f7253657474696e67733a20766f74696e6720706572696f6420604482015266746f6f206c6f7760c81b60648201526084015b60405180910390fd5b60055460408051918252602082018390527f7e3f7f0708a84de9203036abaa450dccc85ad5ff52f78c170f3edb55cf5e8828910160405180910390a1600555565b60065460408051918252602082018390527fccb45da8d5717e6c4544694297c4ba5cf151d455c9bb0ed4fc7a38411bc05461910160405180910390a1600655565b6064811115620003835760405162461bcd60e51b815260206004820152604360248201527f476f7665726e6f72566f74657351756f72756d4672616374696f6e3a2071756f60448201527f72756d4e756d657261746f72206f7665722071756f72756d44656e6f6d696e616064820152623a37b960e91b608482015260a40162000273565b60006200038f620004df565b90508015801590620003a15750600954155b156200041c5760096000016040518060400160405280600063ffffffff168152602001620003da846200051760201b620014ad1760201c565b6001600160e01b0390811690915282546001810184556000938452602093849020835194909301519091166401000000000263ffffffff909316929092179101555b620004378260096200058660201b6200151a1790919060201c565b505060408051828152602081018490527f0553476bf02ef2726e8ce5ced78d63e26e602e4a2257b1f559418e24b4633997910160405180910390a15050565b600a54604080516001600160a01b03928316815291831660208301527f08f74ea46ef7894f65eabfb5e6e695de773a000b47c529ab559178069b226401910160405180910390a1600a80546001600160a01b0319166001600160a01b0392909216919091179055565b600954600090156200051057620005026009620005d960201b620015501760201c565b6001600160e01b0316905090565b5060085490565b60006001600160e01b03821115620005825760405162461bcd60e51b815260206004820152602760248201527f53616665436173743a2076616c756520646f65736e27742066697420696e20326044820152663234206269747360c81b606482015260840162000273565b5090565b600080620005c384600001620005a7436200062760201b6200158e1760201c565b620005bd866200051760201b620014ad1760201c565b6200068e565b6001600160e01b03918216969116945092505050565b805460009080156200061d576200060583620005f76001846200096e565b600091825260209091200190565b5464010000000090046001600160e01b031662000620565b60005b9392505050565b600063ffffffff821115620005825760405162461bcd60e51b815260206004820152602660248201527f53616665436173743a2076616c756520646f65736e27742066697420696e203360448201526532206269747360d01b606482015260840162000273565b825460009081908015620007ea576000620006b087620005f76001856200096e565b60408051808201909152905463ffffffff8082168084526401000000009092046001600160e01b031660208401529192509087161015620007345760405162461bcd60e51b815260206004820152601760248201527f436865636b706f696e743a20696e76616c6964206b6579000000000000000000604482015260640162000273565b8563ffffffff16816000015163ffffffff1614156200078957846200076088620005f76001866200096e565b80546001600160e01b03929092166401000000000263ffffffff909216919091179055620007d9565b6040805180820190915263ffffffff80881682526001600160e01b0380881660208085019182528b54600181018d5560008d81529190912094519151909216640100000000029216919091179101555b602001519250839150620008409050565b50506040805180820190915263ffffffff80851682526001600160e01b0380851660208085019182528854600181018a5560008a8152918220955192519093166401000000000291909316179201919091559050815b935093915050565b828054620008569062000994565b90600052602060002090601f0160209004810192826200087a5760008555620008c5565b82601f106200089557805160ff1916838001178555620008c5565b82800160010185558215620008c5579182015b82811115620008c5578251825591602001919060010190620008a8565b50620005829291505b80821115620005825760008155600101620008ce565b6001600160a01b0381168114620008fa57600080fd5b50565b60008060008060008060c087890312156200091757600080fd5b86516200092481620008e4565b60208801519096506200093781620008e4565b8095505060408701519350606087015192506080870151915060a08701516200096081620008e4565b809150509295509295509295565b6000828210156200098f57634e487b7160e01b600052601160045260246000fd5b500390565b600181811c90821680620009a957607f821691505b60208210811415620009cb57634e487b7160e01b600052602260045260246000fd5b50919050565b60805160a05160c05160e051610100516101205161014051613c8362000a3a6000396000818161086901528181612146015261235b01526000612681015260006126d0015260006126ab015260006126040152600061262e015260006126580152613c836000f3fe60806040526004361061024a5760003560e01c80637b3c71d311610139578063c28bc2fa116100b6578063ea0217cf1161007a578063ea0217cf146107ab578063eb9019d4146107cb578063ece40cc1146107eb578063f23a6e611461080b578063f8ce560a14610837578063fc0c546a1461085757600080fd5b8063c28bc2fa146106cc578063c59057e4146106df578063d33219b4146106ff578063dd4e2ba514610731578063deaaa7cc1461077757600080fd5b8063a890c910116100fd578063a890c9101461062b578063ab58fb8e1461064b578063b58131b01461066b578063bc197c8114610680578063c01f9e37146106ac57600080fd5b80637b3c71d3146105a25780637d5e81e2146105c257806397c3d334146105e25780639a802a6d146105f6578063a7713a701461061657600080fd5b80633932abb1116101c757806354fd4d501161018b57806354fd4d50146104f857806356781388146105225780635f398a141461054257806360c4247f1461056257806370b0f6601461058257600080fd5b80633932abb1146103f75780633bccf4fd1461040c5780633e4f49e61461042c5780634385963214610459578063544ffc9c146104a357600080fd5b8063150b7a021161020e578063150b7a021461032c578063160cbed7146103705780632656227d146103905780632d63f693146103a35780632fe3e261146103c357600080fd5b806301ffc9a71461027257806302a251a3146102a757806303420181146102ca57806306f3f9e6146102ea57806306fdde031461030a57600080fd5b3661026d573061025861088b565b6001600160a01b03161461026b57600080fd5b005b600080fd5b34801561027e57600080fd5b5061029261028d366004612db9565b6108a4565b60405190151581526020015b60405180910390f35b3480156102b357600080fd5b506102bc6108b5565b60405190815260200161029e565b3480156102d657600080fd5b506102bc6102e5366004612ef7565b6108c0565b3480156102f657600080fd5b5061026b610305366004612f9d565b6109b8565b34801561031657600080fd5b5061031f610a50565b60405161029e9190613003565b34801561033857600080fd5b5061035761034736600461302b565b630a85bd0160e11b949350505050565b6040516001600160e01b0319909116815260200161029e565b34801561037c57600080fd5b506102bc61038b366004613207565b610ae2565b6102bc61039e366004613207565b610ce2565b3480156103af57600080fd5b506102bc6103be366004612f9d565b610dcf565b3480156103cf57600080fd5b506102bc7fb3b3f3b703cd84ce352197dcff232b1b5d3cfb2025ce47cf04742d0651f1af8881565b34801561040357600080fd5b506102bc610e06565b34801561041857600080fd5b506102bc610427366004613296565b610e11565b34801561043857600080fd5b5061044c610447366004612f9d565b610e87565b60405161029e91906132fa565b34801561046557600080fd5b50610292610474366004613322565b60008281526007602090815260408083206001600160a01b038516845260030190915290205460ff1692915050565b3480156104af57600080fd5b506104dd6104be366004612f9d565b6000908152600760205260409020805460018201546002909201549092565b6040805193845260208401929092529082015260600161029e565b34801561050457600080fd5b506040805180820190915260018152603160f81b602082015261031f565b34801561052e57600080fd5b506102bc61053d366004613352565b610e92565b34801561054e57600080fd5b506102bc61055d36600461337e565b610ebb565b34801561056e57600080fd5b506102bc61057d366004612f9d565b610f05565b34801561058e57600080fd5b5061026b61059d366004612f9d565b610f9a565b3480156105ae57600080fd5b506102bc6105bd366004613401565b611026565b3480156105ce57600080fd5b506102bc6105dd36600461345a565b611078565b3480156105ee57600080fd5b5060646102bc565b34801561060257600080fd5b506102bc61061136600461350e565b61108f565b34801561062257600080fd5b506102bc6110a6565b34801561063757600080fd5b5061026b610646366004613566565b6110d0565b34801561065757600080fd5b506102bc610666366004612f9d565b61115c565b34801561067757600080fd5b506102bc6111f6565b34801561068c57600080fd5b5061035761069b366004613583565b63bc197c8160e01b95945050505050565b3480156106b857600080fd5b506102bc6106c7366004612f9d565b611201565b61026b6106da366004613616565b611230565b3480156106eb57600080fd5b506102bc6106fa366004613207565b611344565b34801561070b57600080fd5b50600a546001600160a01b03165b6040516001600160a01b03909116815260200161029e565b34801561073d57600080fd5b506040805180820190915260208082527f737570706f72743d627261766f2671756f72756d3d666f722c6162737461696e9082015261031f565b34801561078357600080fd5b506102bc7f150214d74d59b7d1e90c73fc22ef3d991dd0a76b046543d4d80ab92d2a50328f81565b3480156107b757600080fd5b5061026b6107c6366004612f9d565b61137e565b3480156107d757600080fd5b506102bc6107e6366004613659565b61140a565b3480156107f757600080fd5b5061026b610806366004612f9d565b611416565b34801561081757600080fd5b50610357610826366004613685565b63f23a6e6160e01b95945050505050565b34801561084357600080fd5b506102bc610852366004612f9d565b6114a2565b34801561086357600080fd5b506107197f000000000000000000000000000000000000000000000000000000000000000081565b600061089f600a546001600160a01b031690565b905090565b60006108af826115f3565b92915050565b600061089f60055490565b60008061096461095c7fb3b3f3b703cd84ce352197dcff232b1b5d3cfb2025ce47cf04742d0651f1af888c8c8c8c6040516108fc9291906136ed565b60405180910390208b80519060200120604051602001610941959493929190948552602085019390935260ff9190911660408401526060830152608082015260a00190565b60405160208183030381529060405280519060200120611618565b868686611666565b90506109aa8a828b8b8b8080601f0160208091040260200160405190810160405280939291908181526020018383808284376000920191909152508d9250611684915050565b9a9950505050505050505050565b6109c061088b565b6001600160a01b0316336001600160a01b0316146109f95760405162461bcd60e51b81526004016109f0906136fd565b60405180910390fd5b30610a0261088b565b6001600160a01b031614610a445760008036604051610a229291906136ed565b604051809103902090505b80610a3860026117e6565b14610a4257610a2d565b505b610a4d81611865565b50565b606060008054610a5f90613734565b80601f0160208091040260200160405190810160405280929190818152602001828054610a8b90613734565b8015610ad85780601f10610aad57610100808354040283529160200191610ad8565b820191906000526020600020905b815481529060010190602001808311610abb57829003601f168201915b5050505050905090565b600080610af186868686611344565b90506004610afe82610e87565b6007811115610b0f57610b0f6132e4565b14610b2c5760405162461bcd60e51b81526004016109f09061376f565b600a546040805163793d064960e11b815290516000926001600160a01b03169163f27a0c929160048083019260209291908290030181865afa158015610b76573d6000803e3d6000fd5b505050506040513d601f19601f82011682018060405250810190610b9a91906137b0565b600a5460405163b1c5f42760e01b81529192506001600160a01b03169063b1c5f42790610bd4908a908a908a906000908b90600401613892565b602060405180830381865afa158015610bf1573d6000803e3d6000fd5b505050506040513d601f19601f82011682018060405250810190610c1591906137b0565b6000838152600b602052604080822092909255600a5491516308f2a0bb60e41b81526001600160a01b0390921691638f2a0bb091610c60918b918b918b91908b9089906004016138e0565b600060405180830381600087803b158015610c7a57600080fd5b505af1158015610c8e573d6000803e3d6000fd5b505050507f9a2e42fd6722813d69113e7d0079d3d940171428df7373df9c7f7617cfda2892828242610cc0919061394e565b6040805192835260208301919091520160405180910390a15095945050505050565b600080610cf186868686611344565b90506000610cfe82610e87565b90506004816007811115610d1457610d146132e4565b1480610d3157506005816007811115610d2f57610d2f6132e4565b145b610d4d5760405162461bcd60e51b81526004016109f09061376f565b600082815260016020818152604092839020600201805460ff191690921790915590518381527f712ae1383f79ac853f8d882153778e0260ef8f03b504e2866e0593e04d2b291f910160405180910390a1610dab82888888886119b1565b610db88288888888611a54565b610dc58288888888611a61565b5095945050505050565b60008181526001602090815260408083208151928301909152546001600160401b0316908190525b6001600160401b031692915050565b600061089f60045490565b604080517f150214d74d59b7d1e90c73fc22ef3d991dd0a76b046543d4d80ab92d2a50328f602082015290810186905260ff851660608201526000908190610e5f9061095c90608001610941565b9050610e7c87828860405180602001604052806000815250611a9a565b979650505050505050565b60006108af82611c1d565b600080339050610eb384828560405180602001604052806000815250611a9a565b949350505050565b600080339050610e7c87828888888080601f0160208091040260200160405190810160405280939291908181526020018383808284376000920191909152508a9250611684915050565b60095460009080610f1a575050600854919050565b60006009610f29600184613966565b81548110610f3957610f3961397d565b60009182526020918290206040805180820190915291015463ffffffff8116808352600160201b9091046001600160e01b03169282019290925291508410610f8f57602001516001600160e01b03169392505050565b610eb3600985611d67565b610fa261088b565b6001600160a01b0316336001600160a01b031614610fd25760405162461bcd60e51b81526004016109f0906136fd565b30610fdb61088b565b6001600160a01b03161461101d5760008036604051610ffb9291906136ed565b604051809103902090505b8061101160026117e6565b1461101b57611006565b505b610a4d81611e19565b60008033905061106e86828787878080601f016020809104026020016040519081016040528093929190818152602001838380828437600092019190915250611a9a92505050565b9695505050505050565b600061108685858585611e5a565b95945050505050565b600061109c84848461211d565b90505b9392505050565b600954600090156110c9576110bb6009611550565b6001600160e01b0316905090565b5060085490565b6110d861088b565b6001600160a01b0316336001600160a01b0316146111085760405162461bcd60e51b81526004016109f0906136fd565b3061111161088b565b6001600160a01b03161461115357600080366040516111319291906136ed565b604051809103902090505b8061114760026117e6565b146111515761113c565b505b610a4d816121b3565b600a546000828152600b602052604080822054905163d45c443560e01b81526004810191909152909182916001600160a01b039091169063d45c443590602401602060405180830381865afa1580156111b9573d6000803e3d6000fd5b505050506040513d601f19601f820116820180604052508101906111dd91906137b0565b9050806001146111ed578061109f565b60009392505050565b600061089f60065490565b60008181526001602081815260408084208151928301909152909101546001600160401b031690819052610df7565b61123861088b565b6001600160a01b0316336001600160a01b0316146112685760405162461bcd60e51b81526004016109f0906136fd565b3061127161088b565b6001600160a01b0316146112b357600080366040516112919291906136ed565b604051809103902090505b806112a760026117e6565b146112b15761129c565b505b600080856001600160a01b03168585856040516112d19291906136ed565b60006040518083038185875af1925050503d806000811461130e576040519150601f19603f3d011682016040523d82523d6000602084013e611313565b606091505b509150915061133b8282604051806060016040528060288152602001613c266028913961221c565b50505050505050565b60008484848460405160200161135d9493929190613993565b60408051601f19818403018152919052805160209091012095945050505050565b61138661088b565b6001600160a01b0316336001600160a01b0316146113b65760405162461bcd60e51b81526004016109f0906136fd565b306113bf61088b565b6001600160a01b03161461140157600080366040516113df9291906136ed565b604051809103902090505b806113f560026117e6565b146113ff576113ea565b505b610a4d81612235565b600061109f83836122d6565b61141e61088b565b6001600160a01b0316336001600160a01b03161461144e5760405162461bcd60e51b81526004016109f0906136fd565b3061145761088b565b6001600160a01b03161461149957600080366040516114779291906136ed565b604051809103902090505b8061148d60026117e6565b1461149757611482565b505b610a4d816122f7565b60006108af82612338565b60006001600160e01b038211156115165760405162461bcd60e51b815260206004820152602760248201527f53616665436173743a2076616c756520646f65736e27742066697420696e20326044820152663234206269747360c81b60648201526084016109f0565b5090565b6000806115388461152a4361158e565b611533866114ad565b6123e2565b6001600160e01b0391821693501690505b9250929050565b805460009080156111ed576115788361156a600184613966565b600091825260209091200190565b54600160201b90046001600160e01b031661109f565b600063ffffffff8211156115165760405162461bcd60e51b815260206004820152602660248201527f53616665436173743a2076616c756520646f65736e27742066697420696e203360448201526532206269747360d01b60648201526084016109f0565b60006001600160e01b03198216636e665ced60e01b14806108af57506108af8261258c565b60006108af6116256125f7565b8360405161190160f01b6020820152602281018390526042810182905260009060620160405160208183030381529060405280519060200120905092915050565b60008060006116778787878761271e565b91509150610dc5816127e2565b600085815260016020819052604082209061169e88610e87565b60078111156116af576116af6132e4565b146117085760405162461bcd60e51b815260206004820152602360248201527f476f7665726e6f723a20766f7465206e6f742063757272656e746c792061637460448201526269766560e81b60648201526084016109f0565b604080516020810190915281546001600160401b0316908190526000906117319088908661211d565b90506117408888888488612930565b835161179257866001600160a01b03167fb8e138887d0aa13bab447e82de9d5c1777041ecd21ca36ba824ff1e6c07ddda48988848960405161178594939291906139de565b60405180910390a2610e7c565b866001600160a01b03167fe2babfbac5889a709b63bb7f598b324e08bc5a4fb9ec647fb3cbc9ec07eb871289888489896040516117d3959493929190613a06565b60405180910390a2979650505050505050565b60006118018254600f81810b600160801b909204900b131590565b1561181f57604051631ed9509560e11b815260040160405180910390fd5b508054600f0b6000818152600180840160205260408220805492905583546fffffffffffffffffffffffffffffffff191692016001600160801b03169190911790915590565b60648111156118e85760405162461bcd60e51b815260206004820152604360248201527f476f7665726e6f72566f74657351756f72756d4672616374696f6e3a2071756f60448201527f72756d4e756d657261746f72206f7665722071756f72756d44656e6f6d696e616064820152623a37b960e91b608482015260a4016109f0565b60006118f26110a6565b905080158015906119035750600954155b1561196757604080518082019091526000815260099060208101611926846114ad565b6001600160e01b039081169091528254600181018455600093845260209384902083519490930151909116600160201b0263ffffffff909316929092179101555b61197260098361151a565b505060408051828152602081018490527f0553476bf02ef2726e8ce5ced78d63e26e602e4a2257b1f559418e24b4633997910160405180910390a15050565b306119ba61088b565b6001600160a01b031614611a4d5760005b8451811015611a4b57306001600160a01b03168582815181106119f0576119f061397d565b60200260200101516001600160a01b03161415611a3b57611a3b838281518110611a1c57611a1c61397d565b6020026020010151805190602001206002612aaf90919063ffffffff16565b611a4481613a4c565b90506119cb565b505b5050505050565b611a4d8585858585612aeb565b30611a6a61088b565b6001600160a01b031614611a4d57600254600f81810b600160801b909204900b1315611a4d576000600255611a4d565b600080611abe86868686611ab960408051602081019091526000815290565b611684565b600c549091506000906001600160a01b031663db230b52336040516001600160e01b031960e084901b1681526001600160a01b039091166004820152602401602060405180830381865afa158015611b1a573d6000803e3d6000fd5b505050506040513d601f19601f82011682018060405250810190611b3e91906137b0565b9050620186a0600060648311611b545782611b57565b60645b9050600082611b663a84613a67565b611b709190613a67565b90506000611b7f826064612b5f565b600d549091506001600160a01b03166323b872dd30336040516001600160e01b031960e085901b1681526001600160a01b03928316600482015291166024820152604481018490526064016020604051808303816000875af1158015611be9573d6000803e3d6000fd5b505050506040513d601f19601f82011682018060405250810190611c0d9190613a86565b50949a9950505050505050505050565b600080611c2983612b6b565b90506004816007811115611c3f57611c3f6132e4565b14611c4a5792915050565b6000838152600b602052604090205480611c65575092915050565b600a54604051632ab0f52960e01b8152600481018390526001600160a01b0390911690632ab0f52990602401602060405180830381865afa158015611cae573d6000803e3d6000fd5b505050506040513d601f19601f82011682018060405250810190611cd29190613a86565b15611ce1575060079392505050565b600a54604051632c258a9f60e11b8152600481018390526001600160a01b039091169063584b153e90602401602060405180830381865afa158015611d2a573d6000803e3d6000fd5b505050506040513d601f19601f82011682018060405250810190611d4e9190613a86565b15611d5d575060059392505050565b5060029392505050565b6000438210611db85760405162461bcd60e51b815260206004820181905260248201527f436865636b706f696e74733a20626c6f636b206e6f7420796574206d696e656460448201526064016109f0565b6000611dc38361158e565b84549091506000611dd686848385612c77565b90508015611e0357611ded8661156a600184613966565b54600160201b90046001600160e01b0316611e06565b60005b6001600160e01b03169695505050505050565b60045460408051918252602082018390527fc565b045403dc03c2eea82b81a0465edad9e2e7fc4d97e11421c209da93d7a93910160405180910390a1600455565b6000611e646111f6565b611e73336107e6600143613966565b1015611edb5760405162461bcd60e51b815260206004820152603160248201527f476f7665726e6f723a2070726f706f73657220766f7465732062656c6f7720706044820152701c9bdc1bdcd85b081d1a1c995cda1bdb19607a1b60648201526084016109f0565b6000611ef08686868680519060200120611344565b90508451865114611f135760405162461bcd60e51b81526004016109f090613aa8565b8351865114611f345760405162461bcd60e51b81526004016109f090613aa8565b6000865111611f855760405162461bcd60e51b815260206004820152601860248201527f476f7665726e6f723a20656d7074792070726f706f73616c000000000000000060448201526064016109f0565b600081815260016020908152604091829020825191820190925281546001600160401b031690819052156120055760405162461bcd60e51b815260206004820152602160248201527f476f7665726e6f723a2070726f706f73616c20616c72656164792065786973746044820152607360f81b60648201526084016109f0565b6000612017612012610e06565b612cd5565b61202043612cd5565b61202a9190613ae9565b905060006120396120126108b5565b6120439083613ae9565b835467ffffffffffffffff19166001600160401b038416178455905060018301805467ffffffffffffffff19166001600160401b0383161790557f7d84a6263ae0d98d3329bd7b46bb4e8d6f98cd35a7adb45c274c8b7fd5ebd5e084338b8b8d516001600160401b038111156120bb576120bb612e3a565b6040519080825280602002602001820160405280156120ee57816020015b60608152602001906001900390816120d95790505b508c88888e60405161210899989796959493929190613b14565b60405180910390a15091979650505050505050565b604051630748d63560e31b81526001600160a01b038481166004830152602482018490526000917f000000000000000000000000000000000000000000000000000000000000000090911690633a46b1a890604401602060405180830381865afa15801561218f573d6000803e3d6000fd5b505050506040513d601f19601f8201168201806040525081019061109c91906137b0565b600a54604080516001600160a01b03928316815291831660208301527f08f74ea46ef7894f65eabfb5e6e695de773a000b47c529ab559178069b226401910160405180910390a1600a80546001600160a01b0319166001600160a01b0392909216919091179055565b6060831561222b57508161109f565b61109f8383612d3d565b600081116122955760405162461bcd60e51b815260206004820152602760248201527f476f7665726e6f7253657474696e67733a20766f74696e6720706572696f6420604482015266746f6f206c6f7760c81b60648201526084016109f0565b60055460408051918252602082018390527f7e3f7f0708a84de9203036abaa450dccc85ad5ff52f78c170f3edb55cf5e8828910160405180910390a1600555565b600061109f83836122f260408051602081019091526000815290565b61211d565b60065460408051918252602082018390527fccb45da8d5717e6c4544694297c4ba5cf151d455c9bb0ed4fc7a38411bc05461910160405180910390a1600655565b6000606461234583610f05565b604051632394e7a360e21b8152600481018590527f00000000000000000000000000000000000000000000000000000000000000006001600160a01b031690638e539e8c90602401602060405180830381865afa1580156123aa573d6000803e3d6000fd5b505050506040513d601f19601f820116820180604052508101906123ce91906137b0565b6123d89190613a67565b6108af9190613c03565b82546000908190801561252f5760006124008761156a600185613966565b60408051808201909152905463ffffffff808216808452600160201b9092046001600160e01b0316602084015291925090871610156124815760405162461bcd60e51b815260206004820152601760248201527f436865636b706f696e743a20696e76616c6964206b657900000000000000000060448201526064016109f0565b8563ffffffff16816000015163ffffffff1614156124d057846124a98861156a600186613966565b80546001600160e01b0392909216600160201b0263ffffffff90921691909117905561251f565b6040805180820190915263ffffffff80881682526001600160e01b0380881660208085019182528b54600181018d5560008d81529190912094519151909216600160201b029216919091179101555b6020015192508391506125849050565b50506040805180820190915263ffffffff80851682526001600160e01b0380851660208085019182528854600181018a5560008a815291822095519251909316600160201b0291909316179201919091559050815b935093915050565b60006001600160e01b0319821663bf26d89760e01b14806125bd57506001600160e01b031982166379dd796f60e01b145b806125d857506001600160e01b03198216630271189760e51b145b806108af57506301ffc9a760e01b6001600160e01b03198316146108af565b6000306001600160a01b037f00000000000000000000000000000000000000000000000000000000000000001614801561265057507f000000000000000000000000000000000000000000000000000000000000000046145b1561267a57507f000000000000000000000000000000000000000000000000000000000000000090565b50604080517f00000000000000000000000000000000000000000000000000000000000000006020808301919091527f0000000000000000000000000000000000000000000000000000000000000000828401527f000000000000000000000000000000000000000000000000000000000000000060608301524660808301523060a0808401919091528351808403909101815260c0909201909252805191012090565b6000807f7fffffffffffffffffffffffffffffff5d576e7357a4501ddfe92f46681b20a083111561275557506000905060036127d9565b6040805160008082526020820180845289905260ff881692820192909252606081018690526080810185905260019060a0016020604051602081039080840390855afa1580156127a9573d6000803e3d6000fd5b5050604051601f1901519150506001600160a01b0381166127d2576000600192509250506127d9565b9150600090505b94509492505050565b60008160048111156127f6576127f66132e4565b14156127ff5750565b6001816004811115612813576128136132e4565b14156128615760405162461bcd60e51b815260206004820152601860248201527f45434453413a20696e76616c6964207369676e6174757265000000000000000060448201526064016109f0565b6002816004811115612875576128756132e4565b14156128c35760405162461bcd60e51b815260206004820152601f60248201527f45434453413a20696e76616c6964207369676e6174757265206c656e6774680060448201526064016109f0565b60038160048111156128d7576128d76132e4565b1415610a4d5760405162461bcd60e51b815260206004820152602260248201527f45434453413a20696e76616c6964207369676e6174757265202773272076616c604482015261756560f01b60648201526084016109f0565b60008581526007602090815260408083206001600160a01b0388168452600381019092529091205460ff16156129b85760405162461bcd60e51b815260206004820152602760248201527f476f7665726e6f72566f74696e6753696d706c653a20766f746520616c726561604482015266191e4818d85cdd60ca1b60648201526084016109f0565b6001600160a01b03851660009081526003820160205260408120805460ff1916600117905560ff168460ff161415612a0957828160000160008282546129fe919061394e565b90915550611a4b9050565b60ff841660011415612a2957828160010160008282546129fe919061394e565b60ff841660021415612a4957828160020160008282546129fe919061394e565b60405162461bcd60e51b815260206004820152603560248201527f476f7665726e6f72566f74696e6753696d706c653a20696e76616c69642076616044820152746c756520666f7220656e756d20566f74655479706560581b60648201526084016109f0565b8154600160801b90819004600f0b6000818152600180860160205260409091209390935583546001600160801b03908116939091011602179055565b600a5460405163e38335e560e01b81526001600160a01b039091169063e38335e5903490612b26908890889088906000908990600401613892565b6000604051808303818588803b158015612b3f57600080fd5b505af1158015612b53573d6000803e3d6000fd5b50505050505050505050565b600061109f8284613c03565b6000818152600160205260408120600281015460ff1615612b8f5750600792915050565b6002810154610100900460ff1615612baa5750600292915050565b6000612bb584610dcf565b905080612c045760405162461bcd60e51b815260206004820152601d60248201527f476f7665726e6f723a20756e6b6e6f776e2070726f706f73616c20696400000060448201526064016109f0565b438110612c15575060009392505050565b6000612c2085611201565b9050438110612c3457506001949350505050565b612c3d85612d67565b8015612c5c575060008581526007602052604090208054600190910154115b15612c6c57506004949350505050565b506003949350505050565b60005b81831015612ccd576000612c8e8484612d9e565b60008781526020902090915063ffffffff86169082015463ffffffff161115612cb957809250612cc7565b612cc481600161394e565b93505b50612c7a565b509392505050565b60006001600160401b038211156115165760405162461bcd60e51b815260206004820152602660248201527f53616665436173743a2076616c756520646f65736e27742066697420696e203660448201526534206269747360d01b60648201526084016109f0565b815115612d4d5781518083602001fd5b8060405162461bcd60e51b81526004016109f09190613003565b600081815260076020526040812060028101546001820154612d89919061394e565b612d9561085285610dcf565b11159392505050565b6000612dad6002848418613c03565b61109f9084841661394e565b600060208284031215612dcb57600080fd5b81356001600160e01b03198116811461109f57600080fd5b803560ff81168114612df457600080fd5b919050565b60008083601f840112612e0b57600080fd5b5081356001600160401b03811115612e2257600080fd5b60208301915083602082850101111561154957600080fd5b634e487b7160e01b600052604160045260246000fd5b604051601f8201601f191681016001600160401b0381118282101715612e7857612e78612e3a565b604052919050565b60006001600160401b03831115612e9957612e99612e3a565b612eac601f8401601f1916602001612e50565b9050828152838383011115612ec057600080fd5b828260208301376000602084830101529392505050565b600082601f830112612ee857600080fd5b61109f83833560208501612e80565b60008060008060008060008060e0898b031215612f1357600080fd5b88359750612f2360208a01612de3565b965060408901356001600160401b0380821115612f3f57600080fd5b612f4b8c838d01612df9565b909850965060608b0135915080821115612f6457600080fd5b50612f718b828c01612ed7565b945050612f8060808a01612de3565b925060a0890135915060c089013590509295985092959890939650565b600060208284031215612faf57600080fd5b5035919050565b6000815180845260005b81811015612fdc57602081850181015186830182015201612fc0565b81811115612fee576000602083870101525b50601f01601f19169290920160200192915050565b60208152600061109f6020830184612fb6565b6001600160a01b0381168114610a4d57600080fd5b6000806000806080858703121561304157600080fd5b843561304c81613016565b9350602085013561305c81613016565b92506040850135915060608501356001600160401b0381111561307e57600080fd5b61308a87828801612ed7565b91505092959194509250565b60006001600160401b038211156130af576130af612e3a565b5060051b60200190565b600082601f8301126130ca57600080fd5b813560206130df6130da83613096565b612e50565b82815260059290921b840181019181810190868411156130fe57600080fd5b8286015b8481101561312257803561311581613016565b8352918301918301613102565b509695505050505050565b600082601f83011261313e57600080fd5b8135602061314e6130da83613096565b82815260059290921b8401810191818101908684111561316d57600080fd5b8286015b848110156131225780358352918301918301613171565b600082601f83011261319957600080fd5b813560206131a96130da83613096565b82815260059290921b840181019181810190868411156131c857600080fd5b8286015b848110156131225780356001600160401b038111156131eb5760008081fd5b6131f98986838b0101612ed7565b8452509183019183016131cc565b6000806000806080858703121561321d57600080fd5b84356001600160401b038082111561323457600080fd5b613240888389016130b9565b9550602087013591508082111561325657600080fd5b6132628883890161312d565b9450604087013591508082111561327857600080fd5b5061328587828801613188565b949793965093946060013593505050565b600080600080600060a086880312156132ae57600080fd5b853594506132be60208701612de3565b93506132cc60408701612de3565b94979396509394606081013594506080013592915050565b634e487b7160e01b600052602160045260246000fd5b602081016008831061331c57634e487b7160e01b600052602160045260246000fd5b91905290565b6000806040838503121561333557600080fd5b82359150602083013561334781613016565b809150509250929050565b6000806040838503121561336557600080fd5b8235915061337560208401612de3565b90509250929050565b60008060008060006080868803121561339657600080fd5b853594506133a660208701612de3565b935060408601356001600160401b03808211156133c257600080fd5b6133ce89838a01612df9565b909550935060608801359150808211156133e757600080fd5b506133f488828901612ed7565b9150509295509295909350565b6000806000806060858703121561341757600080fd5b8435935061342760208601612de3565b925060408501356001600160401b0381111561344257600080fd5b61344e87828801612df9565b95989497509550505050565b6000806000806080858703121561347057600080fd5b84356001600160401b038082111561348757600080fd5b613493888389016130b9565b955060208701359150808211156134a957600080fd5b6134b58883890161312d565b945060408701359150808211156134cb57600080fd5b6134d788838901613188565b935060608701359150808211156134ed57600080fd5b508501601f810187136134ff57600080fd5b61308a87823560208401612e80565b60008060006060848603121561352357600080fd5b833561352e81613016565b92506020840135915060408401356001600160401b0381111561355057600080fd5b61355c86828701612ed7565b9150509250925092565b60006020828403121561357857600080fd5b813561109f81613016565b600080600080600060a0868803121561359b57600080fd5b85356135a681613016565b945060208601356135b681613016565b935060408601356001600160401b03808211156135d257600080fd5b6135de89838a0161312d565b945060608801359150808211156135f457600080fd5b61360089838a0161312d565b935060808801359150808211156133e757600080fd5b6000806000806060858703121561362c57600080fd5b843561363781613016565b93506020850135925060408501356001600160401b0381111561344257600080fd5b6000806040838503121561366c57600080fd5b823561367781613016565b946020939093013593505050565b600080600080600060a0868803121561369d57600080fd5b85356136a881613016565b945060208601356136b881613016565b9350604086013592506060860135915060808601356001600160401b038111156136e157600080fd5b6133f488828901612ed7565b8183823760009101908152919050565b60208082526018908201527f476f7665726e6f723a206f6e6c79476f7665726e616e63650000000000000000604082015260600190565b600181811c9082168061374857607f821691505b6020821081141561376957634e487b7160e01b600052602260045260246000fd5b50919050565b60208082526021908201527f476f7665726e6f723a2070726f706f73616c206e6f74207375636365737366756040820152601b60fa1b606082015260800190565b6000602082840312156137c257600080fd5b5051919050565b600081518084526020808501945080840160005b838110156138025781516001600160a01b0316875295820195908201906001016137dd565b509495945050505050565b600081518084526020808501945080840160005b8381101561380257815187529582019590820190600101613821565b600081518084526020808501808196508360051b8101915082860160005b85811015613885578284038952613873848351612fb6565b9885019893509084019060010161385b565b5091979650505050505050565b60a0815260006138a560a08301886137c9565b82810360208401526138b7818861380d565b905082810360408401526138cb818761383d565b60608401959095525050608001529392505050565b60c0815260006138f360c08301896137c9565b8281036020840152613905818961380d565b90508281036040840152613919818861383d565b60608401969096525050608081019290925260a0909101529392505050565b634e487b7160e01b600052601160045260246000fd5b6000821982111561396157613961613938565b500190565b60008282101561397857613978613938565b500390565b634e487b7160e01b600052603260045260246000fd5b6080815260006139a660808301876137c9565b82810360208401526139b8818761380d565b905082810360408401526139cc818661383d565b91505082606083015295945050505050565b84815260ff8416602082015282604082015260806060820152600061106e6080830184612fb6565b85815260ff8516602082015283604082015260a060608201526000613a2e60a0830185612fb6565b8281036080840152613a408185612fb6565b98975050505050505050565b6000600019821415613a6057613a60613938565b5060010190565b6000816000190483118215151615613a8157613a81613938565b500290565b600060208284031215613a9857600080fd5b8151801515811461109f57600080fd5b60208082526021908201527f476f7665726e6f723a20696e76616c69642070726f706f73616c206c656e67746040820152600d60fb1b606082015260800190565b60006001600160401b03808316818516808303821115613b0b57613b0b613938565b01949350505050565b60006101208b8352602060018060a01b038c1681850152816040850152613b3d8285018c6137c9565b91508382036060850152613b51828b61380d565b915083820360808501528189518084528284019150828160051b850101838c0160005b83811015613ba257601f19878403018552613b90838351612fb6565b94860194925090850190600101613b74565b505086810360a0880152613bb6818c61383d565b945050505050613bd160c08401876001600160401b03169052565b6001600160401b03851660e0840152828103610100840152613bf38185612fb6565b9c9b505050505050505050505050565b600082613c2057634e487b7160e01b600052601260045260246000fd5b50049056fe476f7665726e6f723a2072656c617920726576657274656420776974686f7574206d657373616765a2646970667358221220acbff85bd0305382ce013a1f5743bfbd45a98c83f3c4bf5a71d76dd28ac79c7364736f6c634300080c0033",
  "devdoc": {
    "errors": {
      "Empty()": [
        {
          "details": "An operation (e.g. {front}) couldn't be completed due to the queue being empty."
        }
      ]
    },
    "kind": "dev",
    "methods": {
      "COUNTING_MODE()": {
        "details": "See {IGovernor-COUNTING_MODE}."
      },
      "castVote(uint256,uint8)": {
        "details": "See {IGovernor-castVote}."
      },
      "castVoteBySig(uint256,uint8,uint8,bytes32,bytes32)": {
        "details": "See {IGovernor-castVoteBySig}."
      },
      "castVoteWithReason(uint256,uint8,string)": {
        "details": "See {IGovernor-castVoteWithReason}."
      },
      "castVoteWithReasonAndParams(uint256,uint8,string,bytes)": {
        "details": "See {IGovernor-castVoteWithReasonAndParams}."
      },
      "castVoteWithReasonAndParamsBySig(uint256,uint8,string,bytes,uint8,bytes32,bytes32)": {
        "details": "See {IGovernor-castVoteWithReasonAndParamsBySig}."
      },
      "execute(address[],uint256[],bytes[],bytes32)": {
        "details": "See {IGovernor-execute}."
      },
      "getVotesWithParams(address,uint256,bytes)": {
        "details": "See {IGovernor-getVotesWithParams}."
      },
      "hasVoted(uint256,address)": {
        "details": "See {IGovernor-hasVoted}."
      },
      "hashProposal(address[],uint256[],bytes[],bytes32)": {
        "details": "See {IGovernor-hashProposal}. The proposal id is produced by hashing the ABI encoded `targets` array, the `values` array, the `calldatas` array and the descriptionHash (bytes32 which itself is the keccak256 hash of the description string). This proposal id can be produced from the proposal data which is part of the {ProposalCreated} event. It can even be computed in advance, before the proposal is submitted. Note that the chainId and the governor address are not part of the proposal id computation. Consequently, the same proposal (with same operation and same description) will have the same id if submitted on multiple governors across multiple networks. This also means that in order to execute the same operation twice (on the same governor) the proposer will have to change the description in order to avoid proposal id conflicts."
      },
      "name()": {
        "details": "See {IGovernor-name}."
      },
      "onERC1155BatchReceived(address,address,uint256[],uint256[],bytes)": {
        "details": "See {IERC1155Receiver-onERC1155BatchReceived}."
      },
      "onERC1155Received(address,address,uint256,uint256,bytes)": {
        "details": "See {IERC1155Receiver-onERC1155Received}."
      },
      "onERC721Received(address,address,uint256,bytes)": {
        "details": "See {IERC721Receiver-onERC721Received}."
      },
      "proposalDeadline(uint256)": {
        "details": "See {IGovernor-proposalDeadline}."
      },
      "proposalEta(uint256)": {
        "details": "Public accessor to check the eta of a queued proposal"
      },
      "proposalSnapshot(uint256)": {
        "details": "See {IGovernor-proposalSnapshot}."
      },
      "proposalVotes(uint256)": {
        "details": "Accessor to the internal vote counts."
      },
      "queue(address[],uint256[],bytes[],bytes32)": {
        "details": "Function to queue a proposal to the timelock."
      },
      "quorumDenominator()": {
        "details": "Returns the quorum denominator. Defaults to 100, but may be overridden."
      },
      "quorumNumerator()": {
        "details": "Returns the current quorum numerator. See {quorumDenominator}."
      },
      "quorumNumerator(uint256)": {
        "details": "Returns the quorum numerator at a specific block number. See {quorumDenominator}."
      },
      "relay(address,uint256,bytes)": {
        "details": "Relays a transaction or function call to an arbitrary target. In cases where the governance executor is some contract other than the governor itself, like when using a timelock, this function can be invoked in a governance proposal to recover tokens or Ether that was sent to the governor contract by mistake. Note that if the executor is simply the governor itself, use of `relay` is redundant."
      },
      "setProposalThreshold(uint256)": {
        "details": "Update the proposal threshold. This operation can only be performed through a governance proposal. Emits a {ProposalThresholdSet} event."
      },
      "setVotingDelay(uint256)": {
        "details": "Update the voting delay. This operation can only be performed through a governance proposal. Emits a {VotingDelaySet} event."
      },
      "setVotingPeriod(uint256)": {
        "details": "Update the voting period. This operation can only be performed through a governance proposal. Emits a {VotingPeriodSet} event."
      },
      "timelock()": {
        "details": "Public accessor to check the address of the timelock"
      },
      "updateQuorumNumerator(uint256)": {
        "details": "Changes the quorum numerator. Emits a {QuorumNumeratorUpdated} event. Requirements: - Must be called through a governance proposal. - New numerator must be smaller or equal to the denominator."
      },
      "updateTimelock(address)": {
        "details": "Public endpoint to update the underlying timelock instance. Restricted to the timelock itself, so updates must be proposed, scheduled, and executed through governance proposals. CAUTION: It is not recommended to change the timelock while there are other queued governance proposals."
      },
      "version()": {
        "details": "See {IGovernor-version}."
      }
    },
    "version": 1
  },
  "userdoc": {
    "kind": "user",
    "methods": {},
    "version": 1
  },
  "storageLayout": {
    "storage": [
      {
        "astId": 607,
        "contract": "contracts/governance_standard/GovernorContract.sol:GovernorContract",
        "label": "_name",
        "offset": 0,
        "slot": "0",
        "type": "t_string_storage"
      },
      {
        "astId": 612,
        "contract": "contracts/governance_standard/GovernorContract.sol:GovernorContract",
        "label": "_proposals",
        "offset": 0,
        "slot": "1",
        "type": "t_mapping(t_uint256,t_struct(ProposalCore)605_storage)"
      },
      {
        "astId": 615,
        "contract": "contracts/governance_standard/GovernorContract.sol:GovernorContract",
        "label": "_governanceCall",
        "offset": 0,
        "slot": "2",
        "type": "t_struct(Bytes32Deque)10090_storage"
      },
      {
        "astId": 3300,
        "contract": "contracts/governance_standard/GovernorContract.sol:GovernorContract",
        "label": "_votingDelay",
        "offset": 0,
        "slot": "4",
        "type": "t_uint256"
      },
      {
        "astId": 3302,
        "contract": "contracts/governance_standard/GovernorContract.sol:GovernorContract",
        "label": "_votingPeriod",
        "offset": 0,
        "slot": "5",
        "type": "t_uint256"
      },
      {
        "astId": 3304,
        "contract": "contracts/governance_standard/GovernorContract.sol:GovernorContract",
        "label": "_proposalThreshold",
        "offset": 0,
        "slot": "6",
        "type": "t_uint256"
      },
      {
        "astId": 3092,
        "contract": "contracts/governance_standard/GovernorContract.sol:GovernorContract",
        "label": "_proposalVotes",
        "offset": 0,
        "slot": "7",
        "type": "t_mapping(t_uint256,t_struct(ProposalVote)3087_storage)"
      },
      {
        "astId": 3903,
        "contract": "contracts/governance_standard/GovernorContract.sol:GovernorContract",
        "label": "_quorumNumerator",
        "offset": 0,
        "slot": "8",
        "type": "t_uint256"
      },
      {
        "astId": 3906,
        "contract": "contracts/governance_standard/GovernorContract.sol:GovernorContract",
        "label": "_quorumNumeratorHistory",
        "offset": 0,
        "slot": "9",
        "type": "t_struct(History)5030_storage"
      },
      {
        "astId": 3483,
        "contract": "contracts/governance_standard/GovernorContract.sol:GovernorContract",
        "label": "_timelock",
        "offset": 0,
        "slot": "10",
        "type": "t_contract(TimelockController)3066"
      },
      {
        "astId": 3487,
        "contract": "contracts/governance_standard/GovernorContract.sol:GovernorContract",
        "label": "_timelockIds",
        "offset": 0,
        "slot": "11",
        "type": "t_mapping(t_uint256,t_bytes32)"
      },
      {
        "astId": 10447,
        "contract": "contracts/governance_standard/GovernorContract.sol:GovernorContract",
        "label": "scoreProviderAddress",
        "offset": 0,
        "slot": "12",
        "type": "t_address"
      },
      {
        "astId": 10453,
        "contract": "contracts/governance_standard/GovernorContract.sol:GovernorContract",
        "label": "_ghoTokenAddress",
        "offset": 0,
        "slot": "13",
        "type": "t_address"
      }
    ],
    "types": {
      "t_address": {
        "encoding": "inplace",
        "label": "address",
        "numberOfBytes": "20"
      },
      "t_array(t_struct(Checkpoint)5035_storage)dyn_storage": {
        "base": "t_struct(Checkpoint)5035_storage",
        "encoding": "dynamic_array",
        "label": "struct Checkpoints.Checkpoint[]",
        "numberOfBytes": "32"
      },
      "t_bool": {
        "encoding": "inplace",
        "label": "bool",
        "numberOfBytes": "1"
      },
      "t_bytes32": {
        "encoding": "inplace",
        "label": "bytes32",
        "numberOfBytes": "32"
      },
      "t_contract(TimelockController)3066": {
        "encoding": "inplace",
        "label": "contract TimelockController",
        "numberOfBytes": "20"
      },
      "t_int128": {
        "encoding": "inplace",
        "label": "int128",
        "numberOfBytes": "16"
      },
      "t_mapping(t_address,t_bool)": {
        "encoding": "mapping",
        "key": "t_address",
        "label": "mapping(address => bool)",
        "numberOfBytes": "32",
        "value": "t_bool"
      },
      "t_mapping(t_int128,t_bytes32)": {
        "encoding": "mapping",
        "key": "t_int128",
        "label": "mapping(int128 => bytes32)",
        "numberOfBytes": "32",
        "value": "t_bytes32"
      },
      "t_mapping(t_uint256,t_bytes32)": {
        "encoding": "mapping",
        "key": "t_uint256",
        "label": "mapping(uint256 => bytes32)",
        "numberOfBytes": "32",
        "value": "t_bytes32"
      },
      "t_mapping(t_uint256,t_struct(ProposalCore)605_storage)": {
        "encoding": "mapping",
        "key": "t_uint256",
        "label": "mapping(uint256 => struct Governor.ProposalCore)",
        "numberOfBytes": "32",
        "value": "t_struct(ProposalCore)605_storage"
      },
      "t_mapping(t_uint256,t_struct(ProposalVote)3087_storage)": {
        "encoding": "mapping",
        "key": "t_uint256",
        "label": "mapping(uint256 => struct GovernorCountingSimple.ProposalVote)",
        "numberOfBytes": "32",
        "value": "t_struct(ProposalVote)3087_storage"
      },
      "t_string_storage": {
        "encoding": "bytes",
        "label": "string",
        "numberOfBytes": "32"
      },
      "t_struct(BlockNumber)6699_storage": {
        "encoding": "inplace",
        "label": "struct Timers.BlockNumber",
        "members": [
          {
            "astId": 6698,
            "contract": "contracts/governance_standard/GovernorContract.sol:GovernorContract",
            "label": "_deadline",
            "offset": 0,
            "slot": "0",
            "type": "t_uint64"
          }
        ],
        "numberOfBytes": "32"
      },
      "t_struct(Bytes32Deque)10090_storage": {
        "encoding": "inplace",
        "label": "struct DoubleEndedQueue.Bytes32Deque",
        "members": [
          {
            "astId": 10083,
            "contract": "contracts/governance_standard/GovernorContract.sol:GovernorContract",
            "label": "_begin",
            "offset": 0,
            "slot": "0",
            "type": "t_int128"
          },
          {
            "astId": 10085,
            "contract": "contracts/governance_standard/GovernorContract.sol:GovernorContract",
            "label": "_end",
            "offset": 16,
            "slot": "0",
            "type": "t_int128"
          },
          {
            "astId": 10089,
            "contract": "contracts/governance_standard/GovernorContract.sol:GovernorContract",
            "label": "_data",
            "offset": 0,
            "slot": "1",
            "type": "t_mapping(t_int128,t_bytes32)"
          }
        ],
        "numberOfBytes": "64"
      },
      "t_struct(Checkpoint)5035_storage": {
        "encoding": "inplace",
        "label": "struct Checkpoints.Checkpoint",
        "members": [
          {
            "astId": 5032,
            "contract": "contracts/governance_standard/GovernorContract.sol:GovernorContract",
            "label": "_blockNumber",
            "offset": 0,
            "slot": "0",
            "type": "t_uint32"
          },
          {
            "astId": 5034,
            "contract": "contracts/governance_standard/GovernorContract.sol:GovernorContract",
            "label": "_value",
            "offset": 4,
            "slot": "0",
            "type": "t_uint224"
          }
        ],
        "numberOfBytes": "32"
      },
      "t_struct(History)5030_storage": {
        "encoding": "inplace",
        "label": "struct Checkpoints.History",
        "members": [
          {
            "astId": 5029,
            "contract": "contracts/governance_standard/GovernorContract.sol:GovernorContract",
            "label": "_checkpoints",
            "offset": 0,
            "slot": "0",
            "type": "t_array(t_struct(Checkpoint)5035_storage)dyn_storage"
          }
        ],
        "numberOfBytes": "32"
      },
      "t_struct(ProposalCore)605_storage": {
        "encoding": "inplace",
        "label": "struct Governor.ProposalCore",
        "members": [
          {
            "astId": 597,
            "contract": "contracts/governance_standard/GovernorContract.sol:GovernorContract",
            "label": "voteStart",
            "offset": 0,
            "slot": "0",
            "type": "t_struct(BlockNumber)6699_storage"
          },
          {
            "astId": 600,
            "contract": "contracts/governance_standard/GovernorContract.sol:GovernorContract",
            "label": "voteEnd",
            "offset": 0,
            "slot": "1",
            "type": "t_struct(BlockNumber)6699_storage"
          },
          {
            "astId": 602,
            "contract": "contracts/governance_standard/GovernorContract.sol:GovernorContract",
            "label": "executed",
            "offset": 0,
            "slot": "2",
            "type": "t_bool"
          },
          {
            "astId": 604,
            "contract": "contracts/governance_standard/GovernorContract.sol:GovernorContract",
            "label": "canceled",
            "offset": 1,
            "slot": "2",
            "type": "t_bool"
          }
        ],
        "numberOfBytes": "96"
      },
      "t_struct(ProposalVote)3087_storage": {
        "encoding": "inplace",
        "label": "struct GovernorCountingSimple.ProposalVote",
        "members": [
          {
            "astId": 3078,
            "contract": "contracts/governance_standard/GovernorContract.sol:GovernorContract",
            "label": "againstVotes",
            "offset": 0,
            "slot": "0",
            "type": "t_uint256"
          },
          {
            "astId": 3080,
            "contract": "contracts/governance_standard/GovernorContract.sol:GovernorContract",
            "label": "forVotes",
            "offset": 0,
            "slot": "1",
            "type": "t_uint256"
          },
          {
            "astId": 3082,
            "contract": "contracts/governance_standard/GovernorContract.sol:GovernorContract",
            "label": "abstainVotes",
            "offset": 0,
            "slot": "2",
            "type": "t_uint256"
          },
          {
            "astId": 3086,
            "contract": "contracts/governance_standard/GovernorContract.sol:GovernorContract",
            "label": "hasVoted",
            "offset": 0,
            "slot": "3",
            "type": "t_mapping(t_address,t_bool)"
          }
        ],
        "numberOfBytes": "128"
      },
      "t_uint224": {
        "encoding": "inplace",
        "label": "uint224",
        "numberOfBytes": "28"
      },
      "t_uint256": {
        "encoding": "inplace",
        "label": "uint256",
        "numberOfBytes": "32"
      },
      "t_uint32": {
        "encoding": "inplace",
        "label": "uint32",
        "numberOfBytes": "4"
      },
      "t_uint64": {
        "encoding": "inplace",
        "label": "uint64",
        "numberOfBytes": "8"
      }
    }
  }
}