{
  "address": "0x3baEf58f49e836d5127a161Ce827ecBa3577B73d",
  "abi": [
    {
      "inputs": [
        {
          "internalType": "address",
          "name": "xAddr",
          "type": "address"
        }
      ],
      "name": "viewScore",
      "outputs": [
        {
          "internalType": "uint256",
          "name": "",
          "type": "uint256"
        }
      ],
      "stateMutability": "pure",
      "type": "function"
    }
  ],
  "transactionHash": "0x8f509e4afa25998109a266928eba0ec800912082e2a14f053bcfdad73453a2ee",
  "args": [],
  "numDeployments": 1,
  "solcInputHash": "f6b1926586e8ecede0086f6593a25dd1",
  "bytecode": "0x608060405234801561001057600080fd5b5060ed8061001f6000396000f3fe6080604052348015600f57600080fd5b506004361060285760003560e01c8063db230b5214602d575b600080fd5b603c60383660046068565b604e565b60405190815260200160405180910390f35b6000606260646001600160a01b0384166096565b92915050565b600060208284031215607957600080fd5b81356001600160a01b0381168114608f57600080fd5b9392505050565b60008260b257634e487b7160e01b600052601260045260246000fd5b50069056fea26469706673582212203d0a84ae1afd4386a297835b9cb552f35394c1789032e27652098c7f1b138a5b64736f6c634300080c0033",
  "devdoc": {
    "kind": "dev",
    "methods": {},
    "version": 1
  },
  "userdoc": {
    "kind": "user",
    "methods": {},
    "version": 1
  },
  "storageLayout": {
    "storage": [],
    "types": null
  }
}